:02126D000C343F
:02126F0003DF9B
:050B8600C180810600A2
:09125100D2B020B00375C7602281
:100CDD00E47881F2C2C67BFE7A00792F789B740589
:100CED00F27F30120F137BFE7A00792F789B7405FB
:100CFD00F27F2A120F13D2C61212517881E2FF121F
:100D0D000AC77B007A007921121048EF60297821FB
:100D1D00E664AA702808E6F4702308E6FF7881F2ED
:100D2D007824E66F600280087881E2782666602B71
:100D3D0008E67881F280247881E22402F27881E25B
:100D4D00C3943C4002E4F2C2C37F647E001211C61C
:100D5D00D2C37F647E001211C6809D78067401F2A5
:0B0D6D007881E2FF1200037881E2FFB2
:010D78002258
:1009F700E47880F27591FE759240F5937594E0F571
:100A070095F596F5B1F5B2F5B3F5B4F5C9F5CA1292
:100A17001228121202E47880F27880E2FFC394026F
:100A2700501EE42FFFE43401FE1211847880E22582
:100A3700E02407F8E4F208EFF27880E204F280D9C4
:100A47007F01121129EF24807800F27F0A7E0012BD
:100A570011C67F03121129EF24807802F27F0A7EE4
:100A6700001211C67F04121129EF24807803F27F48
:100A77000A7E008015121002EF6014C2C37FE87E61
:100A8700031211C6D2C37FE87E031211C680E61295
:100A97000CDD120FB6C2C67BFE7A00792F789B74E5
:100AA70005F27F30120F137BFE7A00792F789B7443
:100AB70005F27F2A120F13D2C67F0A7E000211C6E3
:0A0D79007896EBF208EAF208E9F2BE
:100D8300E4FFFE7896E2FB08E2FA08E2F90F90002E
:100D93000074AA1203AF0F90000174AF1203AF0FD8
:100DA30090000274161203AF0F900003E41203AF16
:100DB3007807E20F9000041203AF7808E20F900067
:100DC300051203AF7809E20F9000061203AF780A09
:100DD300E20F9000071203AFEF24FC90000312030D
:100DE300AFE4FDEDC39F50177896E2FB08E2FA08E3
:100DF300E2F98D827583001203822EFE0D80E47862
:100E030096E2FB08E2FA08E2F98F82758300EE02AC
:020E130003AF2B
:0A08E3007896EBF208EAF208E9F259
:1008ED00E4FFFE7896E2FB08E2FA08E2F90F9000C9
:1008FD000074AA1203AF0F90000174AF1203AF0F73
:10090D0090000274031203AF0F900003E41203AFC3
:10091D00780FE20F9000041203AF7810E20F9000F1
:10092D00051203AF7811E20F9000061203AF781293
:10093D00E20F9000071203AF780BE20F9000081240
:10094D0003AF780CE20F9000091203AF780DE20FA0
:10095D0090000A1203AF780EE20F90000B1203AF56
:10096D007813E20F90000C1203AF7814E20F900091
:10097D000D1203AF7815E20F90000E1203AF78162B
:10098D00E20F90000F1203AF7817E20F90001012D4
:10099D0003AF7818E20F9000111203AF7819E20F30
:1009AD009000121203AF781AE20F9000131203AFEA
:1009BD00EF24FC9000031203AFE4FDEDC39F50172D
:1009CD007896E2FB08E2FA08E2F98D82758300124F
:1009DD0003822EFE0D80E47896E2FB08E2FA08E22F
:0A09ED00F98F82758300EE0203AF5C
:100C34001209F77F011206897F021206897F0512C5
:100C440011297820EFF27F017E001211C67F021273
:100C54001129AC07E41201BEE4FBFA79F8784312D7
:100C6400000EE4FBFA798078431201171201F2783E
:100C740023EEF208EFF27F017E001211C67F031209
:100C840011297821EFF27F017E001211C67F041230
:100C940011297822EFF27F017E001211C67F011222
:100CA4001129781FEFF2D37824E2943618E29401E4
:100CB4005006C2A0D2B78004D2A0C2B720A10D7F33
:100CC4000A7E001211C620A10375C720E4FBFA7D39
:090CD400037F80120712020C419B
:1003DF00E47893F208F208F27802E2FF7821E2C3A0
:1003EF009FFFE49400FE7893F208EFF2C3EE64806F
:1003FF0094805007E418F208F28014D37894E294B2
:10040F00FF18E2648094804006E4F20874FFF278EB
:10041F0093E2FC08E2FDEC1201B97BEC7A517948CA
:10042F00784012000E1201F2EF244C780EF2EE34E7
:10043F000418F27803E2FF7822E2C39FFFE49400EE
:10044F00FE7893F208EFF2C3EE648094805007E4D5
:10045F0018F208F28014D37894E294FF18E26480C3
:10046F0094804006E4F20874FFF27893E2FC08E20D
:10047F00FDEC1201B97BEC7A517948784012000EED
:10048F001201F2EF244C780CF2EE340418F2781FBC
:10049F00E2FF7E007893EEF208EFF2C3748094804F
:1004AF005007E418F208F28014D37894E294FF18FE
:1004BF00E2648094804006E4F20874FFF27893E2DD
:1004CF00FC08E2FDEC1201B97BEC7A5179487840D7
:1004DF0012000E1201F2EF244CFFEE3404FE7811DD
:1004EF00F208EFF2C394A6EE9404500A187404F2C3
:1004FF000874A6F28013D37812E2941218E29407CC
:10050F0040077407F2087412F27820E2FCE412013B
:10051F00BEE4FBFA7960784012000E1201F2EF246C
:10052F00E8FFEE3403FE780FF208EFF2C394E8EE23
:10053F009403500A187403F20874E8F28013D37806
:10054F0010E294D018E2940740077407F20874D0B1
:10055F00F2D37810E294B018E294045004D2C4801D
:10056F0002C2C47B007A0079391208E37B007A005B
:10057F00793912108DBF2004D2C38002C2C32086E6
:10058F00297F057E001211C6308603020632C3781A
:10059F0008E294C418E264809489500A08E224F4B3
:1005AF00F218E23401F2D20080792090267F057E86
:1005BF00001211C620906CD37808E2943C18E264C4
:1005CF00809476400A08E2240CF218E234FEF2D24C
:1005DF000080502087267F057E001211C62087439A
:1005EF00C3780AE294C418E264809489500A08E23E
:1005FF0024F4F218E23401F2D20080272085247F00
:10060F00057E001211C620851AD3780AE2943C1891
:10061F00E264809476400A08E2240CF218E234FE79
:10062F00F2D200300044C2C27F007E011211B1E449
:10063F007895F27895E2FF25E02407F808E2FDE4CB
:10064F002FFFE43401FE12116B7895E204F2E2C33E
:10065F00940240DF7B007A00790E120D797B007ACD
:10066F0000790E12108DC200D2C2121251E4FBFAA1
:0A067F007D027F801207120203E7DC
:03000000020E15D8
:0C0E1500787FE4F6D8FD758150020E5C79
:0F122800759D7EE4F5BD75BC807F0AFE0211C680
:10119C00EF4488F5BC0000000000E5BC30E4FB53D4
:0511AC00BCEFAFBD2205
:02112900AE070F
:10112B00E4FDFBFAAF0612119CEF2BFBE43AFA0D30
:10113B00EDB408F0AE02EB7803CEC313CE13D8F99F
:01114B00FFA4
:01114C002280
:08125A007F197E2BDEFEDFFC94
:011262002269
:1011C600AD07AC06ED1DAE0470011C4E6005121293
:0411D6005A80F12228
:041263007F02DFFE29
:011267002264
:1011DA00AD07AC06ED1DAE0470011C4E600512127F
:0411EA006380F1220B
:05126800A5A5A5A5A548
:100B8B001839000000000000000000000000000009
:100B9B000000000000000000000018210000000011
:100BAB00000000000000000000000000000000003A
:100BBB00000000008677E7E7E7E7E7008629E7E72D
:100BCB00E7E7E700862FC2C2C2C2C2008635C30068
:100BDB0000000000863BC400000000008641C500F9
:100BEB00000000008647C60000000000864DFFFF96
:100BFB00FFFFFF008653FFFFFFFFFF008659FFFF3C
:100C0B00FFFFFF00865FFFFFFFFFFF008665FFFF13
:100C1B00FFFFFF00866BFFFFFFFFFF008671FFFFEB
:080C2B00FFFFFF008227FF001C
:0C0EA100EBF208EAF208E9F2C2C57E009C
:070EAD0078A0EEF208EFF25D
:100EB400E408F208F278A0E2FE08E2FF3392A6EF1B
:100EC40025E079A1F3EE3319F3D2A77F0C7E00124B
:100ED40011DAA2A5E433FF78A0E2F208E24FF27F30
:100EE4000C7E001211DAC2A778A3E22401F218E200
:100EF4003400F2C308E2940818E2940040B778A0E2
:050F0400E2FE08E2FF1F
:010F090022C5
:0410C9007825EFF2A5
:1010CD00C2C57F0C7E001211DA7825E2FF7E001278
:1010DD000EAD7F0C7E001211DAE4FFFE120EAD781C
:1010ED0026EFF27F0C7E001211DAD2C57826E2FFD0
:0110FD0022D0
:03114D007897EDA3
:10115000120EA87898EEF208EFF27897E2FF7E0080
:0A116000120EADD2C5789808E2FF28
:01116A002262
:0C123700120EA97FFF7E00120EADD2C582
:011243002288
:020F620078878E
:100F6400120EA1788BEEF208EFF2E408F208F278A0
:100F74008AE2FFC3788EE29F18E29400502C7FFF30
:100F84007E00120EAD7887E2FB08E2FA08E2F978F7
:100F94008DE2FC08E2F5828C83EF1203AF788EE2D7
:100FA4002401F218E23400F280C5D2C5788B08E23D
:010FB400FF3D
:010FB5002219
:090F0A007BFE789B7405F27F3038
:020F13007898CC
:100F1500120EA1789CEEF208EFF2E408F208F278DE
:100F25009BE2FFC3789FE29F18E2940050277898D0
:100F3500E2FB0808E2F92401F218E2FA3400F212A1
:100F45000369FF7E00120EAD789FE22401F218E2DC
:0C0F55003400F280CAD2C5789C08E2FF8C
:010F6100226D
:10108D00C2C6789B7420F27FA0120F13D2C620A483
:10109D00FD7F071212377896EFF2FD7F2712114D63
:1010AD007896E230E40A7DFF7FE112114D7F102228
:0B10BD007896E230E5037F20227FFFE1
:0110C8002205
:0A1048007882EBF208EAF208E9F200
:101052007F071212377885EFF2FD7F2712114D7844
:1010620085E2FF7827F2EF30E61E7882E2FB08E2A3
:10107200FA08E2F9788A7420F27F61120F627DFF2A
:0A1082007FE212114D7F01227F0072
:01108C002241
:100AC7007882EFF2C2C67D0F7F2012114DE4FD7FC1
:100AD7002112114D7D3F7F2212114D7882E2FD7F59
:100AE7002512114D7D0F7F2612114D7BFE7A00795D
:100AF70029789B7405F27F2A120F137BFE7A0079FF
:100B07002F789B7405F27F2B120F137BFE7A0079E7
:100B170035789B7401F27F2C120F137BFE7A0079D4
:100B27003B789B7401F27F2D120F137BFE7A0079BD
:100B370041789B7401F27F2E120F137BFE7A0079A6
:100B470047789B7401F27F2F120F137A00792F12C7
:100B57000F0A7D207F3112114D7D207F3212114DFA
:100B67007D207F3312114D7D207F3412114D7D2062
:0F0B77007F3512114D7D207F3612114DD2C622CF
:100FB6007881EFF2C2C67A007977120F0A7BFE7A41
:100FC600007929789B7405F27F2A120F13E4FD7FBE
:100FD6002112114D7D3F7F2212114D7DFF7F24127C
:100FE600114D7881E2FD7F2512114D7D0F7F26126E
:0C0FF600114D7D0E7F2012114DD2C6223D
:1010020078817C007DFE7BFF7A1279687E007F0505
:101012001203437BFE7A007981120F0C7BFE7A0069
:101022007981788A7405F27F10120F62E4FF74816D
:101032002FF8E2B4A5050FEFB405F3EF64056003E2
:051042007F01227F0088
:011047002286
:10120200759850438E0475D7F375D6FC438E01430F
:031212008E102219
:080003008F993099FDC299228A
:0A10FE00787DEBF208EAF208E9F24F
:10110800E4FEEEC39D5019787DE2FB08E2FA08E29E
:10111800F98E82758300120382FF1200030E80E2AB
:0111280022A4
:10121500120369FF600C120003740129F9E43AFA1C
:0312250080EE2236
:1011EE00AE071FEE600DE4FCFD0DED70010C4C60C2
:0311FE00EF80F689
:0112010022CA
:0D124400E4F5C7F5C5F5C675C380F5C422F5
:1011840075C78375C5018FC4EEF5C375C65A75C698
:07119400A500AFC2121244D6
:01119B002231
:10116B0075C78375C5028FC4EEF5C3AF058FC27506
:09117B00C65A75C6A50002124413
:1011B10075C78375C5038FC4EEF5C375C65A75C669
:0511C100A5000212442C
:10068900EFD3940140037FFF2274192F2FF8E6203E
:10069900E5F4C2AFE64430F6D2AFAE0CEEC39F50DC
:1006A900210E741C2EF8E6F908E618BE010274FF43
:1006B900FDED69600909E71919F7090980F31616AB
:1006C90080DAEED39F400405810581EED39F402255
:1006D900741C2EF808E6F9EEB50C02A98118060675
:1006E900E6FDED6960091919E70909F71980F31E93
:1006F90080D9EF241CF8E604F8EF2F0490126D93CB
:09070900F608EF2F93F67F0022A1
:100712008FF0E4FFFEE50C232418F8C2A930F70D90
:100722007F08E6600B2DF660325030800730F1060C
:10073200EDF660277E020830F010C2AFE610E72522
:100742000E30E20CD2AF7F048014C2AFE610E71580
:1007520054EC4EF6D2AFD2A90207EC7F0808EF4460
:0F07620083F4C2AF56C6D2AFD2A954804FFF2244
:03000B0002077673
:10077100C2AF80FE3212077585D00B75D008AAE092
:10078100C28CE58A24F7F58AE58C34D8F58CD28CB5
:10079100EC241DF8E6BC010274FFC39581B414007A
:1007A10040CE7902781816E608700BC2AFE630E148
:1007B100034418F6D2AF08D9EDEA8BD030010122FB
:1007C100D50DFCC0E0C0D0C0F0C083C082C000C065
:1007D10001C002C003C004C005C006C007E50C2368
:1007E1002419F87440C2AF46F6D2AFD201E50CFF2E
:1007F100232419F80F0808BF02047F007819E63096
:10080100E4F200E50CC39F5020050C741C250CF884
:10081100E6FDA68108E6AE0CBE010274FFCDF8E844
:100821006D60E008E6C0E080F6E50CD39F4027E567
:100831000C241DF8E6AE0CBE010274FFFD18E6CDD6
:10084100F8E5816D6006D0E0F61880F5E50C241C12
:10085100C8F6150C80D3750D05E50C232419F87F16
:1008610004C2AFE610E61E30E00310E20C7F003058
:05087100E10730E30483
:100876007F0854F4547CC6D2AF54804207C201228A
:10088600F6D2AFD007D006D005D004D003D002D020
:1008960001D000D082D083D0F0D0D0D0E0C20122E7
:1008A600781CA68174016006FF0876FFDFFB7F02D5
:1008B600E47818F608F608DFFA7819763090126DA3
:1008C600740193C0E0E493C0E0750D05438901759A
:0D08D6008AF0758CD8D28CD2AFD2A9220145
:10000E00EC4D6011E8497017ED33EC3304600DE4EC
:10001E00FCFFFEFD22E933E8330470F802025E12A3
:10002E00022958046009E4CC2481500628500902A4
:10003E000268284003020265C0E0EB4A7044B980B2
:10004E0006D0E0FB020254EF4E701CBD8008EBFFA1
:10005E00EAFEE9FD80EBE98DF0A4FEE5F00200F783
:10006E00E9CDF9EAFEEBFFEF89F0A4FCE5F0CE89CD
:10007E00F0A42EFFE435F0CD89F0A42DFEE435F08A
:10008E008067EF4E7005BD80D780C3EF8BF0A4ACB8
:10009E00F0EE8BF0A42CFCE435F0F8EF8AF0A42CF3
:1000AE00E5F038FCE433CB8DF0A42CFCE5F03BF806
:1000BE00EE8AF0A42CFCE5F038F8E433CF89F0A4F6
:1000CE002CFCE5F038CF3400CE89F0A42FFFE5F0FC
:1000DE003EFEE433C98DF0A42EFEE5F039CD8AF054
:1000EE00A42FFFE5F03EFEE43DFD33D0E0FB5007CC
:1000FE000BBB000F020268EC2CFCEF33FFEE33FE5D
:06010E00ED33FD0202408A
:10011400020268EC5D046005E85904700302025EA3
:10012400120229580460F6EC4860F2EC7004FDFEFB
:10013400FF22C860DB2481C85009C39860025006BE
:100144000202659850CAF582E9294B4A7005AB82D0
:1001540002025475F0007C1A7880C3EF9BEE9AED8E
:1001640099400DC3EF9BFFEE9AFEED99FDE842F036
:10017400DC23ACF0D0E0FFD0E0FED0E0FDAB822089
:10018400E7101BEB60BAEC2CFCEF33FFEE33FEED13
:1001940033FD020240E803F830E705C0F075F000D3
:1001A400EF2FFFEE33FEED33FD40B830E7C280AAF7
:1001B40075F020800E75F010800575F0087D007EC6
:1001C400007F003392D530D5031203D1EC334010B5
:1001D400EF33FFEE33FEED33FDEC33FCD5F0ED22CF
:0E01E400E5F0247EA2D513CC92E7CDCEFF220B
:1001F200EDD2E7CD33EC3392D524814006E4FFFE05
:10020200FDFC22FCE4CFCECDCC24E0501174FF8063
:10021200EDC3CC13CCCD13CDCE13CECF13CF047000
:07022200F030D5DE0203D12C
:10022900E9D2E7C933E833F892D5EDD2E7CD33EC1B
:0702390033FC5002B2D52294
:10024000EC30E7100FBF000C0EBE00080DBD00041F
:100250000BEB6014A2D5EB13FCED92E7FD2274FFCB
:10026000FCFDFEFF22E480F8A2D574FF13FC7D8024
:03027000E480EF38
:100E21000208A6E493A3F8E493A34003F68001F239
:100E310008DFF48029E493A3F85407240CC8C333D2
:100E4100C4540F4420C8834004F456800146F6DFA1
:100E5100E4800B0102040810204080900B86E47EA0
:100E6100019360BCA3FF543F30E509541FFEE49396
:100E7100A360010ECF54C025E060A840B8E493A35D
:100E8100FAE493A3F8E493A3C8C582C8CAC583CA88
:100E9100F0A3C8C582C8CAC583CADFE9DEE780BE40
:010C330000C0
:10027300E709F608DFFA8046E709F208DFFA803E6D
:1002830088828C83E709F0A3DFFA8032E309F6085A
:10029300DFFA8078E309F208DFFA807088828C83C2
:1002A300E309F0A3DFFA806489828A83E0A3F60876
:1002B300DFFA805889828A83E0A3F208DFFA804C50
:1002C30080D280FA80C680D4806980F28033801027
:1002D30080A680EA809A80A880DA80E280CA803390
:1002E30089828A83ECFAE493A3C8C582C8CCC58308
:1002F300CCF0A3C8C582C8CCC583CCDFE9DEE780D8
:100303000D89828A83E493A3F608DFF9ECFAA9F056
:10031300EDFB2289828A83ECFAE0A3C8C582C8CCAC
:10032300C583CCF0A3C8C582C8CCC583CCDFEADEC5
:10033300E880DB89828A83E493A3F208DFF980CC27
:1003430088F0EF60010E4E60C388F0ED2402B40420
:100353000050B9F582EB2402B4040050AF232345C7
:0603630082239002C37327
:10036900BB010689828A83E0225002E722BBFE0292
:09037900E32289828A83E49322C5
:10038200BB010CE58229F582E5833AF583E0225030
:1003920006E92582F8E622BBFE06E92582F8E2227A
:0D03A200E58229F582E5833AF583E4932294
:1003AF00F8BB010DE58229F582E5833AF583E8F084
:1003BF00225006E92582C8F622BBFE05E92582C830
:0203CF00F22218
:0E03D100C3E49FFFE49EFEE49DFDE49CFC223D
:00000001FF
